{
  "contractName": "NFTCollection",
  "abi": [
    {
      "inputs": [],
      "stateMutability": "nonpayable",
      "type": "constructor"
    },
    {
      "anonymous": false,
      "inputs": [
        {
          "indexed": true,
          "internalType": "address",
          "name": "owner",
          "type": "address"
        },
        {
          "indexed": true,
          "internalType": "address",
          "name": "approved",
          "type": "address"
        },
        {
          "indexed": true,
          "internalType": "uint256",
          "name": "tokenId",
          "type": "uint256"
        }
      ],
      "name": "Approval",
      "type": "event"
    },
    {
      "anonymous": false,
      "inputs": [
        {
          "indexed": true,
          "internalType": "address",
          "name": "owner",
          "type": "address"
        },
        {
          "indexed": true,
          "internalType": "address",
          "name": "operator",
          "type": "address"
        },
        {
          "indexed": false,
          "internalType": "bool",
          "name": "approved",
          "type": "bool"
        }
      ],
      "name": "ApprovalForAll",
      "type": "event"
    },
    {
      "anonymous": false,
      "inputs": [
        {
          "indexed": true,
          "internalType": "address",
          "name": "from",
          "type": "address"
        },
        {
          "indexed": true,
          "internalType": "address",
          "name": "to",
          "type": "address"
        },
        {
          "indexed": true,
          "internalType": "uint256",
          "name": "tokenId",
          "type": "uint256"
        }
      ],
      "name": "Transfer",
      "type": "event"
    },
    {
      "inputs": [
        {
          "internalType": "address",
          "name": "to",
          "type": "address"
        },
        {
          "internalType": "uint256",
          "name": "tokenId",
          "type": "uint256"
        }
      ],
      "name": "approve",
      "outputs": [],
      "stateMutability": "nonpayable",
      "type": "function"
    },
    {
      "inputs": [
        {
          "internalType": "address",
          "name": "owner",
          "type": "address"
        }
      ],
      "name": "balanceOf",
      "outputs": [
        {
          "internalType": "uint256",
          "name": "",
          "type": "uint256"
        }
      ],
      "stateMutability": "view",
      "type": "function",
      "constant": true
    },
    {
      "inputs": [
        {
          "internalType": "uint256",
          "name": "tokenId",
          "type": "uint256"
        }
      ],
      "name": "getApproved",
      "outputs": [
        {
          "internalType": "address",
          "name": "",
          "type": "address"
        }
      ],
      "stateMutability": "view",
      "type": "function",
      "constant": true
    },
    {
      "inputs": [
        {
          "internalType": "address",
          "name": "owner",
          "type": "address"
        },
        {
          "internalType": "address",
          "name": "operator",
          "type": "address"
        }
      ],
      "name": "isApprovedForAll",
      "outputs": [
        {
          "internalType": "bool",
          "name": "",
          "type": "bool"
        }
      ],
      "stateMutability": "view",
      "type": "function",
      "constant": true
    },
    {
      "inputs": [],
      "name": "name",
      "outputs": [
        {
          "internalType": "string",
          "name": "",
          "type": "string"
        }
      ],
      "stateMutability": "view",
      "type": "function",
      "constant": true
    },
    {
      "inputs": [
        {
          "internalType": "uint256",
          "name": "tokenId",
          "type": "uint256"
        }
      ],
      "name": "ownerOf",
      "outputs": [
        {
          "internalType": "address",
          "name": "",
          "type": "address"
        }
      ],
      "stateMutability": "view",
      "type": "function",
      "constant": true
    },
    {
      "inputs": [
        {
          "internalType": "address",
          "name": "from",
          "type": "address"
        },
        {
          "internalType": "address",
          "name": "to",
          "type": "address"
        },
        {
          "internalType": "uint256",
          "name": "tokenId",
          "type": "uint256"
        }
      ],
      "name": "safeTransferFrom",
      "outputs": [],
      "stateMutability": "nonpayable",
      "type": "function"
    },
    {
      "inputs": [
        {
          "internalType": "address",
          "name": "from",
          "type": "address"
        },
        {
          "internalType": "address",
          "name": "to",
          "type": "address"
        },
        {
          "internalType": "uint256",
          "name": "tokenId",
          "type": "uint256"
        },
        {
          "internalType": "bytes",
          "name": "_data",
          "type": "bytes"
        }
      ],
      "name": "safeTransferFrom",
      "outputs": [],
      "stateMutability": "nonpayable",
      "type": "function"
    },
    {
      "inputs": [
        {
          "internalType": "address",
          "name": "operator",
          "type": "address"
        },
        {
          "internalType": "bool",
          "name": "approved",
          "type": "bool"
        }
      ],
      "name": "setApprovalForAll",
      "outputs": [],
      "stateMutability": "nonpayable",
      "type": "function"
    },
    {
      "inputs": [],
      "name": "symbol",
      "outputs": [
        {
          "internalType": "string",
          "name": "",
          "type": "string"
        }
      ],
      "stateMutability": "view",
      "type": "function",
      "constant": true
    },
    {
      "inputs": [
        {
          "internalType": "uint256",
          "name": "index",
          "type": "uint256"
        }
      ],
      "name": "tokenByIndex",
      "outputs": [
        {
          "internalType": "uint256",
          "name": "",
          "type": "uint256"
        }
      ],
      "stateMutability": "view",
      "type": "function",
      "constant": true
    },
    {
      "inputs": [
        {
          "internalType": "address",
          "name": "owner",
          "type": "address"
        },
        {
          "internalType": "uint256",
          "name": "index",
          "type": "uint256"
        }
      ],
      "name": "tokenOfOwnerByIndex",
      "outputs": [
        {
          "internalType": "uint256",
          "name": "",
          "type": "uint256"
        }
      ],
      "stateMutability": "view",
      "type": "function",
      "constant": true
    },
    {
      "inputs": [
        {
          "internalType": "uint256",
          "name": "",
          "type": "uint256"
        }
      ],
      "name": "tokenURIs",
      "outputs": [
        {
          "internalType": "string",
          "name": "",
          "type": "string"
        }
      ],
      "stateMutability": "view",
      "type": "function",
      "constant": true
    },
    {
      "inputs": [],
      "name": "totalSupply",
      "outputs": [
        {
          "internalType": "uint256",
          "name": "",
          "type": "uint256"
        }
      ],
      "stateMutability": "view",
      "type": "function",
      "constant": true
    },
    {
      "inputs": [
        {
          "internalType": "address",
          "name": "from",
          "type": "address"
        },
        {
          "internalType": "address",
          "name": "to",
          "type": "address"
        },
        {
          "internalType": "uint256",
          "name": "tokenId",
          "type": "uint256"
        }
      ],
      "name": "transferFrom",
      "outputs": [],
      "stateMutability": "nonpayable",
      "type": "function"
    },
    {
      "inputs": [
        {
          "internalType": "bytes4",
          "name": "interfaceId",
          "type": "bytes4"
        }
      ],
      "name": "supportsInterface",
      "outputs": [
        {
          "internalType": "bool",
          "name": "",
          "type": "bool"
        }
      ],
      "stateMutability": "view",
      "type": "function",
      "constant": true
    },
    {
      "inputs": [
        {
          "internalType": "uint256",
          "name": "tokenId",
          "type": "uint256"
        }
      ],
      "name": "tokenURI",
      "outputs": [
        {
          "internalType": "string",
          "name": "",
          "type": "string"
        }
      ],
      "stateMutability": "view",
      "type": "function",
      "constant": true
    },
    {
      "inputs": [
        {
          "internalType": "string",
          "name": "_tokenURI",
          "type": "string"
        }
      ],
      "name": "safeMint",
      "outputs": [],
      "stateMutability": "nonpayable",
      "type": "function"
    }
  ],
  "bytecode": "0x60806040523480156200001157600080fd5b506040518060400160405280600e81526020017f6d544320436f6c6c656374696f6e0000000000000000000000000000000000008152506040518060400160405280600381526020017f6d5443000000000000000000000000000000000000000000000000000000000081525081600090816200008f919062000324565b508060019081620000a1919062000324565b5050506200040b565b600081519050919050565b7f4e487b7100000000000000000000000000000000000000000000000000000000600052604160045260246000fd5b7f4e487b7100000000000000000000000000000000000000000000000000000000600052602260045260246000fd5b600060028204905060018216806200012c57607f821691505b602082108103620001425762000141620000e4565b5b50919050565b60008190508160005260206000209050919050565b60006020601f8301049050919050565b600082821b905092915050565b600060088302620001ac7fffffffffffffffffffffffffffffffffffffffffffffffffffffffffffffffff826200016d565b620001b886836200016d565b95508019841693508086168417925050509392505050565b6000819050919050565b6000819050919050565b600062000205620001ff620001f984620001d0565b620001da565b620001d0565b9050919050565b6000819050919050565b6200022183620001e4565b6200023962000230826200020c565b8484546200017a565b825550505050565b600090565b6200025062000241565b6200025d81848462000216565b505050565b5b8181101562000285576200027960008262000246565b60018101905062000263565b5050565b601f821115620002d4576200029e8162000148565b620002a9846200015d565b81016020851015620002b9578190505b620002d1620002c8856200015d565b83018262000262565b50505b505050565b600082821c905092915050565b6000620002f960001984600802620002d9565b1980831691505092915050565b6000620003148383620002e6565b9150826002028217905092915050565b6200032f82620000aa565b67ffffffffffffffff8111156200034b576200034a620000b5565b5b62000357825462000113565b6200036482828562000289565b600060209050601f8311600181146200039c576000841562000387578287015190505b62000393858262000306565b86555062000403565b601f198416620003ac8662000148565b60005b82811015620003d657848901518255600182019150602085019450602081019050620003af565b86831015620003f65784890151620003f2601f891682620002e6565b8355505b6001600288020188555050505b505050505050565b61328a806200041b6000396000f3fe608060405234801561001057600080fd5b50600436106101165760003560e01c80636352211e116100a257806395d89b411161007157806395d89b4114610317578063a22cb46514610335578063b88d4fde14610351578063c87b56dd1461036d578063e985e9c51461039d57610116565b80636352211e1461026b578063695850fb1461029b5780636c8b703f146102b757806370a08231146102e757610116565b806318160ddd116100e957806318160ddd146101b557806323b872dd146101d35780632f745c59146101ef57806342842e0e1461021f5780634f6ccce71461023b57610116565b806301ffc9a71461011b57806306fdde031461014b578063081812fc14610169578063095ea7b314610199575b600080fd5b61013560048036038101906101309190611df9565b6103cd565b6040516101429190611e41565b60405180910390f35b6101536103df565b6040516101609190611eec565b60405180910390f35b610183600480360381019061017e9190611f44565b610471565b6040516101909190611fb2565b60405180910390f35b6101b360048036038101906101ae9190611ff9565b6104f6565b005b6101bd61060d565b6040516101ca9190612048565b60405180910390f35b6101ed60048036038101906101e89190612063565b61061a565b005b61020960048036038101906102049190611ff9565b61067a565b6040516102169190612048565b60405180910390f35b61023960048036038101906102349190612063565b61071f565b005b61025560048036038101906102509190611f44565b61073f565b6040516102629190612048565b60405180910390f35b61028560048036038101906102809190611f44565b6107b0565b6040516102929190611fb2565b60405180910390f35b6102b560048036038101906102b091906121eb565b610861565b005b6102d160048036038101906102cc9190611f44565b610972565b6040516102de9190611eec565b60405180910390f35b61030160048036038101906102fc9190612234565b610a1e565b60405161030e9190612048565b60405180910390f35b61031f610ad5565b60405161032c9190611eec565b60405180910390f35b61034f600480360381019061034a919061228d565b610b67565b005b61036b6004803603810190610366919061236e565b610b7d565b005b61038760048036038101906103829190611f44565b610bdf565b6040516103949190611eec565b60405180910390f35b6103b760048036038101906103b291906123f1565b610ccc565b6040516103c49190611e41565b60405180910390f35b60006103d882610d60565b9050919050565b6060600080546103ee90612460565b80601f016020809104026020016040519081016040528092919081815260200182805461041a90612460565b80156104675780601f1061043c57610100808354040283529160200191610467565b820191906000526020600020905b81548152906001019060200180831161044a57829003601f168201915b5050505050905090565b600061047c82610dda565b6104bb576040517f08c379a00000000000000000000000000000000000000000000000000000000081526004016104b290612503565b60405180910390fd5b6004600083815260200190815260200160002060009054906101000a900473ffffffffffffffffffffffffffffffffffffffff169050919050565b6000610501826107b0565b90508073ffffffffffffffffffffffffffffffffffffffff168373ffffffffffffffffffffffffffffffffffffffff1603610571576040517f08c379a000000000000000000000000000000000000000000000000000000000815260040161056890612595565b60405180910390fd5b8073ffffffffffffffffffffffffffffffffffffffff16610590610e46565b73ffffffffffffffffffffffffffffffffffffffff1614806105bf57506105be816105b9610e46565b610ccc565b5b6105fe576040517f08c379a00000000000000000000000000000000000000000000000000000000081526004016105f590612627565b60405180910390fd5b6106088383610e4e565b505050565b6000600880549050905090565b61062b610625610e46565b82610f07565b61066a576040517f08c379a0000000000000000000000000000000000000000000000000000000008152600401610661906126b9565b60405180910390fd5b610675838383610fe5565b505050565b600061068583610a1e565b82106106c6576040517f08c379a00000000000000000000000000000000000000000000000000000000081526004016106bd9061274b565b60405180910390fd5b600660008473ffffffffffffffffffffffffffffffffffffffff1673ffffffffffffffffffffffffffffffffffffffff168152602001908152602001600020600083815260200190815260200160002054905092915050565b61073a83838360405180602001604052806000815250610b7d565b505050565b600061074961060d565b821061078a576040517f08c379a0000000000000000000000000000000000000000000000000000000008152600401610781906127dd565b60405180910390fd5b6008828154811061079e5761079d6127fd565b5b90600052602060002001549050919050565b6000806002600084815260200190815260200160002060009054906101000a900473ffffffffffffffffffffffffffffffffffffffff169050600073ffffffffffffffffffffffffffffffffffffffff168173ffffffffffffffffffffffffffffffffffffffff1603610858576040517f08c379a000000000000000000000000000000000000000000000000000000000815260040161084f9061289e565b60405180910390fd5b80915050919050565b600b8160405161087191906128fa565b908152602001604051809103902060009054906101000a900460ff16156108cd576040517f08c379a00000000000000000000000000000000000000000000000000000000081526004016108c49061295d565b60405180910390fd5b600a819080600181540180825580915050600190039060005260206000200160009091909190915090816109019190612b29565b506000600a80549050905081600c6000838152602001908152602001600020908161092c9190612b29565b50610937338261124b565b6001600b8360405161094991906128fa565b908152602001604051809103902060006101000a81548160ff0219169083151502179055505050565b600a818154811061098257600080fd5b90600052602060002001600091509050805461099d90612460565b80601f01602080910402602001604051908101604052809291908181526020018280546109c990612460565b8015610a165780601f106109eb57610100808354040283529160200191610a16565b820191906000526020600020905b8154815290600101906020018083116109f957829003601f168201915b505050505081565b60008073ffffffffffffffffffffffffffffffffffffffff168273ffffffffffffffffffffffffffffffffffffffff1603610a8e576040517f08c379a0000000000000000000000000000000000000000000000000000000008152600401610a8590612c6d565b60405180910390fd5b600360008373ffffffffffffffffffffffffffffffffffffffff1673ffffffffffffffffffffffffffffffffffffffff168152602001908152602001600020549050919050565b606060018054610ae490612460565b80601f0160208091040260200160405190810160405280929190818152602001828054610b1090612460565b8015610b5d5780601f10610b3257610100808354040283529160200191610b5d565b820191906000526020600020905b815481529060010190602001808311610b4057829003601f168201915b5050505050905090565b610b79610b72610e46565b8383611269565b5050565b610b8e610b88610e46565b83610f07565b610bcd576040517f08c379a0000000000000000000000000000000000000000000000000000000008152600401610bc4906126b9565b60405180910390fd5b610bd9848484846113d5565b50505050565b6060610bea82610dda565b610c29576040517f08c379a0000000000000000000000000000000000000000000000000000000008152600401610c2090612cff565b60405180910390fd5b600c60008381526020019081526020016000208054610c4790612460565b80601f0160208091040260200160405190810160405280929190818152602001828054610c7390612460565b8015610cc05780601f10610c9557610100808354040283529160200191610cc0565b820191906000526020600020905b815481529060010190602001808311610ca357829003601f168201915b50505050509050919050565b6000600560008473ffffffffffffffffffffffffffffffffffffffff1673ffffffffffffffffffffffffffffffffffffffff16815260200190815260200160002060008373ffffffffffffffffffffffffffffffffffffffff1673ffffffffffffffffffffffffffffffffffffffff16815260200190815260200160002060009054906101000a900460ff16905092915050565b60007f780e9d63000000000000000000000000000000000000000000000000000000007bffffffffffffffffffffffffffffffffffffffffffffffffffffffff1916827bffffffffffffffffffffffffffffffffffffffffffffffffffffffff19161480610dd35750610dd282611431565b5b9050919050565b60008073ffffffffffffffffffffffffffffffffffffffff166002600084815260200190815260200160002060009054906101000a900473ffffffffffffffffffffffffffffffffffffffff1673ffffffffffffffffffffffffffffffffffffffff1614159050919050565b600033905090565b816004600083815260200190815260200160002060006101000a81548173ffffffffffffffffffffffffffffffffffffffff021916908373ffffffffffffffffffffffffffffffffffffffff160217905550808273ffffffffffffffffffffffffffffffffffffffff16610ec1836107b0565b73ffffffffffffffffffffffffffffffffffffffff167f8c5be1e5ebec7d5bd14f71427d1e84f3dd0314c0f7b2291e5b200ac8c7c3b92560405160405180910390a45050565b6000610f1282610dda565b610f51576040517f08c379a0000000000000000000000000000000000000000000000000000000008152600401610f4890612d91565b60405180910390fd5b6000610f5c836107b0565b90508073ffffffffffffffffffffffffffffffffffffffff168473ffffffffffffffffffffffffffffffffffffffff161480610f9e5750610f9d8185610ccc565b5b80610fdc57508373ffffffffffffffffffffffffffffffffffffffff16610fc484610471565b73ffffffffffffffffffffffffffffffffffffffff16145b91505092915050565b8273ffffffffffffffffffffffffffffffffffffffff16611005826107b0565b73ffffffffffffffffffffffffffffffffffffffff161461105b576040517f08c379a000000000000000000000000000000000000000000000000000000000815260040161105290612e23565b60405180910390fd5b600073ffffffffffffffffffffffffffffffffffffffff168273ffffffffffffffffffffffffffffffffffffffff16036110ca576040517f08c379a00000000000000000000000000000000000000000000000000000000081526004016110c190612eb5565b60405180910390fd5b6110d5838383611513565b6110e0600082610e4e565b6001600360008573ffffffffffffffffffffffffffffffffffffffff1673ffffffffffffffffffffffffffffffffffffffff16815260200190815260200160002060008282546111309190612f04565b925050819055506001600360008473ffffffffffffffffffffffffffffffffffffffff1673ffffffffffffffffffffffffffffffffffffffff16815260200190815260200160002060008282546111879190612f38565b92505081905550816002600083815260200190815260200160002060006101000a81548173ffffffffffffffffffffffffffffffffffffffff021916908373ffffffffffffffffffffffffffffffffffffffff160217905550808273ffffffffffffffffffffffffffffffffffffffff168473ffffffffffffffffffffffffffffffffffffffff167fddf252ad1be2c89b69c2b068fc378daa952ba7f163c4a11628f55a4df523b3ef60405160405180910390a4611246838383611523565b505050565b611265828260405180602001604052806000815250611528565b5050565b8173ffffffffffffffffffffffffffffffffffffffff168373ffffffffffffffffffffffffffffffffffffffff16036112d7576040517f08c379a00000000000000000000000000000000000000000000000000000000081526004016112ce90612fb8565b60405180910390fd5b80600560008573ffffffffffffffffffffffffffffffffffffffff1673ffffffffffffffffffffffffffffffffffffffff16815260200190815260200160002060008473ffffffffffffffffffffffffffffffffffffffff1673ffffffffffffffffffffffffffffffffffffffff16815260200190815260200160002060006101000a81548160ff0219169083151502179055508173ffffffffffffffffffffffffffffffffffffffff168373ffffffffffffffffffffffffffffffffffffffff167f17307eab39ab6107e8899845ad3d59bd9653f200f220920489ca2b5937696c31836040516113c89190611e41565b60405180910390a3505050565b6113e0848484610fe5565b6113ec84848484611583565b61142b576040517f08c379a00000000000000000000000000000000000000000000000000000000081526004016114229061304a565b60405180910390fd5b50505050565b60007f80ac58cd000000000000000000000000000000000000000000000000000000007bffffffffffffffffffffffffffffffffffffffffffffffffffffffff1916827bffffffffffffffffffffffffffffffffffffffffffffffffffffffff191614806114fc57507f5b5e139f000000000000000000000000000000000000000000000000000000007bffffffffffffffffffffffffffffffffffffffffffffffffffffffff1916827bffffffffffffffffffffffffffffffffffffffffffffffffffffffff1916145b8061150c575061150b8261170a565b5b9050919050565b61151e838383611774565b505050565b505050565b6115328383611886565b61153f6000848484611583565b61157e576040517f08c379a00000000000000000000000000000000000000000000000000000000081526004016115759061304a565b60405180910390fd5b505050565b60006115a48473ffffffffffffffffffffffffffffffffffffffff16611a5f565b156116fd578373ffffffffffffffffffffffffffffffffffffffff1663150b7a026115cd610e46565b8786866040518563ffffffff1660e01b81526004016115ef94939291906130bf565b6020604051808303816000875af192505050801561162b57506040513d601f19601f820116820180604052508101906116289190613120565b60015b6116ad573d806000811461165b576040519150601f19603f3d011682016040523d82523d6000602084013e611660565b606091505b5060008151036116a5576040517f08c379a000000000000000000000000000000000000000000000000000000000815260040161169c9061304a565b60405180910390fd5b805181602001fd5b63150b7a0260e01b7bffffffffffffffffffffffffffffffffffffffffffffffffffffffff1916817bffffffffffffffffffffffffffffffffffffffffffffffffffffffff191614915050611702565b600190505b949350505050565b60007f01ffc9a7000000000000000000000000000000000000000000000000000000007bffffffffffffffffffffffffffffffffffffffffffffffffffffffff1916827bffffffffffffffffffffffffffffffffffffffffffffffffffffffff1916149050919050565b61177f838383611a82565b600073ffffffffffffffffffffffffffffffffffffffff168373ffffffffffffffffffffffffffffffffffffffff16036117c1576117bc81611a87565b611800565b8173ffffffffffffffffffffffffffffffffffffffff168373ffffffffffffffffffffffffffffffffffffffff16146117ff576117fe8382611ad0565b5b5b600073ffffffffffffffffffffffffffffffffffffffff168273ffffffffffffffffffffffffffffffffffffffff16036118425761183d81611c3d565b611881565b8273ffffffffffffffffffffffffffffffffffffffff168273ffffffffffffffffffffffffffffffffffffffff16146118805761187f8282611d0e565b5b5b505050565b600073ffffffffffffffffffffffffffffffffffffffff168273ffffffffffffffffffffffffffffffffffffffff16036118f5576040517f08c379a00000000000000000000000000000000000000000000000000000000081526004016118ec90613199565b60405180910390fd5b6118fe81610dda565b1561193e576040517f08c379a000000000000000000000000000000000000000000000000000000000815260040161193590613205565b60405180910390fd5b61194a60008383611513565b6001600360008473ffffffffffffffffffffffffffffffffffffffff1673ffffffffffffffffffffffffffffffffffffffff168152602001908152602001600020600082825461199a9190612f38565b92505081905550816002600083815260200190815260200160002060006101000a81548173ffffffffffffffffffffffffffffffffffffffff021916908373ffffffffffffffffffffffffffffffffffffffff160217905550808273ffffffffffffffffffffffffffffffffffffffff16600073ffffffffffffffffffffffffffffffffffffffff167fddf252ad1be2c89b69c2b068fc378daa952ba7f163c4a11628f55a4df523b3ef60405160405180910390a4611a5b60008383611523565b5050565b6000808273ffffffffffffffffffffffffffffffffffffffff163b119050919050565b505050565b6008805490506009600083815260200190815260200160002081905550600881908060018154018082558091505060019003906000526020600020016000909190919091505550565b60006001611add84610a1e565b611ae79190612f04565b9050600060076000848152602001908152602001600020549050818114611bcc576000600660008673ffffffffffffffffffffffffffffffffffffffff1673ffffffffffffffffffffffffffffffffffffffff168152602001908152602001600020600084815260200190815260200160002054905080600660008773ffffffffffffffffffffffffffffffffffffffff1673ffffffffffffffffffffffffffffffffffffffff168152602001908152602001600020600084815260200190815260200160002081905550816007600083815260200190815260200160002081905550505b6007600084815260200190815260200160002060009055600660008573ffffffffffffffffffffffffffffffffffffffff1673ffffffffffffffffffffffffffffffffffffffff16815260200190815260200160002060008381526020019081526020016000206000905550505050565b60006001600880549050611c519190612f04565b9050600060096000848152602001908152602001600020549050600060088381548110611c8157611c806127fd565b5b906000526020600020015490508060088381548110611ca357611ca26127fd565b5b906000526020600020018190555081600960008381526020019081526020016000208190555060096000858152602001908152602001600020600090556008805480611cf257611cf1613225565b5b6001900381819060005260206000200160009055905550505050565b6000611d1983610a1e565b905081600660008573ffffffffffffffffffffffffffffffffffffffff1673ffffffffffffffffffffffffffffffffffffffff168152602001908152602001600020600083815260200190815260200160002081905550806007600084815260200190815260200160002081905550505050565b6000604051905090565b600080fd5b600080fd5b60007fffffffff0000000000000000000000000000000000000000000000000000000082169050919050565b611dd681611da1565b8114611de157600080fd5b50565b600081359050611df381611dcd565b92915050565b600060208284031215611e0f57611e0e611d97565b5b6000611e1d84828501611de4565b91505092915050565b60008115159050919050565b611e3b81611e26565b82525050565b6000602082019050611e566000830184611e32565b92915050565b600081519050919050565b600082825260208201905092915050565b60005b83811015611e96578082015181840152602081019050611e7b565b60008484015250505050565b6000601f19601f8301169050919050565b6000611ebe82611e5c565b611ec88185611e67565b9350611ed8818560208601611e78565b611ee181611ea2565b840191505092915050565b60006020820190508181036000830152611f068184611eb3565b905092915050565b6000819050919050565b611f2181611f0e565b8114611f2c57600080fd5b50565b600081359050611f3e81611f18565b92915050565b600060208284031215611f5a57611f59611d97565b5b6000611f6884828501611f2f565b91505092915050565b600073ffffffffffffffffffffffffffffffffffffffff82169050919050565b6000611f9c82611f71565b9050919050565b611fac81611f91565b82525050565b6000602082019050611fc76000830184611fa3565b92915050565b611fd681611f91565b8114611fe157600080fd5b50565b600081359050611ff381611fcd565b92915050565b600080604083850312156120105761200f611d97565b5b600061201e85828601611fe4565b925050602061202f85828601611f2f565b9150509250929050565b61204281611f0e565b82525050565b600060208201905061205d6000830184612039565b92915050565b60008060006060848603121561207c5761207b611d97565b5b600061208a86828701611fe4565b935050602061209b86828701611fe4565b92505060406120ac86828701611f2f565b9150509250925092565b600080fd5b600080fd5b7f4e487b7100000000000000000000000000000000000000000000000000000000600052604160045260246000fd5b6120f882611ea2565b810181811067ffffffffffffffff82111715612117576121166120c0565b5b80604052505050565b600061212a611d8d565b905061213682826120ef565b919050565b600067ffffffffffffffff821115612156576121556120c0565b5b61215f82611ea2565b9050602081019050919050565b82818337600083830152505050565b600061218e6121898461213b565b612120565b9050828152602081018484840111156121aa576121a96120bb565b5b6121b584828561216c565b509392505050565b600082601f8301126121d2576121d16120b6565b5b81356121e284826020860161217b565b91505092915050565b60006020828403121561220157612200611d97565b5b600082013567ffffffffffffffff81111561221f5761221e611d9c565b5b61222b848285016121bd565b91505092915050565b60006020828403121561224a57612249611d97565b5b600061225884828501611fe4565b91505092915050565b61226a81611e26565b811461227557600080fd5b50565b60008135905061228781612261565b92915050565b600080604083850312156122a4576122a3611d97565b5b60006122b285828601611fe4565b92505060206122c385828601612278565b9150509250929050565b600067ffffffffffffffff8211156122e8576122e76120c0565b5b6122f182611ea2565b9050602081019050919050565b600061231161230c846122cd565b612120565b90508281526020810184848401111561232d5761232c6120bb565b5b61233884828561216c565b509392505050565b600082601f830112612355576123546120b6565b5b81356123658482602086016122fe565b91505092915050565b6000806000806080858703121561238857612387611d97565b5b600061239687828801611fe4565b94505060206123a787828801611fe4565b93505060406123b887828801611f2f565b925050606085013567ffffffffffffffff8111156123d9576123d8611d9c565b5b6123e587828801612340565b91505092959194509250565b6000806040838503121561240857612407611d97565b5b600061241685828601611fe4565b925050602061242785828601611fe4565b9150509250929050565b7f4e487b7100000000000000000000000000000000000000000000000000000000600052602260045260246000fd5b6000600282049050600182168061247857607f821691505b60208210810361248b5761248a612431565b5b50919050565b7f4552433732313a20617070726f76656420717565727920666f72206e6f6e657860008201527f697374656e7420746f6b656e0000000000000000000000000000000000000000602082015250565b60006124ed602c83611e67565b91506124f882612491565b604082019050919050565b6000602082019050818103600083015261251c816124e0565b9050919050565b7f4552433732313a20617070726f76616c20746f2063757272656e74206f776e6560008201527f7200000000000000000000000000000000000000000000000000000000000000602082015250565b600061257f602183611e67565b915061258a82612523565b604082019050919050565b600060208201905081810360008301526125ae81612572565b9050919050565b7f4552433732313a20617070726f76652063616c6c6572206973206e6f74206f7760008201527f6e6572206e6f7220617070726f76656420666f7220616c6c0000000000000000602082015250565b6000612611603883611e67565b915061261c826125b5565b604082019050919050565b6000602082019050818103600083015261264081612604565b9050919050565b7f4552433732313a207472616e736665722063616c6c6572206973206e6f74206f60008201527f776e6572206e6f7220617070726f766564000000000000000000000000000000602082015250565b60006126a3603183611e67565b91506126ae82612647565b604082019050919050565b600060208201905081810360008301526126d281612696565b9050919050565b7f455243373231456e756d657261626c653a206f776e657220696e646578206f7560008201527f74206f6620626f756e6473000000000000000000000000000000000000000000602082015250565b6000612735602b83611e67565b9150612740826126d9565b604082019050919050565b6000602082019050818103600083015261276481612728565b9050919050565b7f455243373231456e756d657261626c653a20676c6f62616c20696e646578206f60008201527f7574206f6620626f756e64730000000000000000000000000000000000000000602082015250565b60006127c7602c83611e67565b91506127d28261276b565b604082019050919050565b600060208201905081810360008301526127f6816127ba565b9050919050565b7f4e487b7100000000000000000000000000000000000000000000000000000000600052603260045260246000fd5b7f4552433732313a206f776e657220717565727920666f72206e6f6e657869737460008201527f656e7420746f6b656e0000000000000000000000000000000000000000000000602082015250565b6000612888602983611e67565b91506128938261282c565b604082019050919050565b600060208201905081810360008301526128b78161287b565b9050919050565b600081905092915050565b60006128d482611e5c565b6128de81856128be565b93506128ee818560208601611e78565b80840191505092915050565b600061290682846128c9565b915081905092915050565b7f54686520746f6b656e205552492073686f756c6420626520756e697175650000600082015250565b6000612947601e83611e67565b915061295282612911565b602082019050919050565b600060208201905081810360008301526129768161293a565b9050919050565b60008190508160005260206000209050919050565b60006020601f8301049050919050565b600082821b905092915050565b6000600883026129df7fffffffffffffffffffffffffffffffffffffffffffffffffffffffffffffffff826129a2565b6129e986836129a2565b95508019841693508086168417925050509392505050565b6000819050919050565b6000612a26612a21612a1c84611f0e565b612a01565b611f0e565b9050919050565b6000819050919050565b612a4083612a0b565b612a54612a4c82612a2d565b8484546129af565b825550505050565b600090565b612a69612a5c565b612a74818484612a37565b505050565b5b81811015612a9857612a8d600082612a61565b600181019050612a7a565b5050565b601f821115612add57612aae8161297d565b612ab784612992565b81016020851015612ac6578190505b612ada612ad285612992565b830182612a79565b50505b505050565b600082821c905092915050565b6000612b0060001984600802612ae2565b1980831691505092915050565b6000612b198383612aef565b9150826002028217905092915050565b612b3282611e5c565b67ffffffffffffffff811115612b4b57612b4a6120c0565b5b612b558254612460565b612b60828285612a9c565b600060209050601f831160018114612b935760008415612b81578287015190505b612b8b8582612b0d565b865550612bf3565b601f198416612ba18661297d565b60005b82811015612bc957848901518255600182019150602085019450602081019050612ba4565b86831015612be65784890151612be2601f891682612aef565b8355505b6001600288020188555050505b505050505050565b7f4552433732313a2062616c616e636520717565727920666f7220746865207a6560008201527f726f206164647265737300000000000000000000000000000000000000000000602082015250565b6000612c57602a83611e67565b9150612c6282612bfb565b604082019050919050565b60006020820190508181036000830152612c8681612c4a565b9050919050565b7f4552433732314d657461646174613a2055524920717565727920666f72206e6f60008201527f6e6578697374656e7420746f6b656e0000000000000000000000000000000000602082015250565b6000612ce9602f83611e67565b9150612cf482612c8d565b604082019050919050565b60006020820190508181036000830152612d1881612cdc565b9050919050565b7f4552433732313a206f70657261746f7220717565727920666f72206e6f6e657860008201527f697374656e7420746f6b656e0000000000000000000000000000000000000000602082015250565b6000612d7b602c83611e67565b9150612d8682612d1f565b604082019050919050565b60006020820190508181036000830152612daa81612d6e565b9050919050565b7f4552433732313a207472616e736665722066726f6d20696e636f72726563742060008201527f6f776e6572000000000000000000000000000000000000000000000000000000602082015250565b6000612e0d602583611e67565b9150612e1882612db1565b604082019050919050565b60006020820190508181036000830152612e3c81612e00565b9050919050565b7f4552433732313a207472616e7366657220746f20746865207a65726f2061646460008201527f7265737300000000000000000000000000000000000000000000000000000000602082015250565b6000612e9f602483611e67565b9150612eaa82612e43565b604082019050919050565b60006020820190508181036000830152612ece81612e92565b9050919050565b7f4e487b7100000000000000000000000000000000000000000000000000000000600052601160045260246000fd5b6000612f0f82611f0e565b9150612f1a83611f0e565b9250828203905081811115612f3257612f31612ed5565b5b92915050565b6000612f4382611f0e565b9150612f4e83611f0e565b9250828201905080821115612f6657612f65612ed5565b5b92915050565b7f4552433732313a20617070726f766520746f2063616c6c657200000000000000600082015250565b6000612fa2601983611e67565b9150612fad82612f6c565b602082019050919050565b60006020820190508181036000830152612fd181612f95565b9050919050565b7f4552433732313a207472616e7366657220746f206e6f6e20455243373231526560008201527f63656976657220696d706c656d656e7465720000000000000000000000000000602082015250565b6000613034603283611e67565b915061303f82612fd8565b604082019050919050565b6000602082019050818103600083015261306381613027565b9050919050565b600081519050919050565b600082825260208201905092915050565b60006130918261306a565b61309b8185613075565b93506130ab818560208601611e78565b6130b481611ea2565b840191505092915050565b60006080820190506130d46000830187611fa3565b6130e16020830186611fa3565b6130ee6040830185612039565b81810360608301526131008184613086565b905095945050505050565b60008151905061311a81611dcd565b92915050565b60006020828403121561313657613135611d97565b5b60006131448482850161310b565b91505092915050565b7f4552433732313a206d696e7420746f20746865207a65726f2061646472657373600082015250565b6000613183602083611e67565b915061318e8261314d565b602082019050919050565b600060208201905081810360008301526131b281613176565b9050919050565b7f4552433732313a20746f6b656e20616c7265616479206d696e74656400000000600082015250565b60006131ef601c83611e67565b91506131fa826131b9565b602082019050919050565b6000602082019050818103600083015261321e816131e2565b9050919050565b7f4e487b7100000000000000000000000000000000000000000000000000000000600052603160045260246000fdfea2646970667358221220fe8d6d6fbaf60268817c1e592e1d9fc96bd4c0719ee752ff9f97be19f0f6029b64736f6c63430008110033",
  "immutableReferences": {},
  "source": "// SPDX-License-Identifier: MIT\r\npragma solidity ^0.8.0;\r\n\r\nimport \"@openzeppelin/contracts/token/ERC721/ERC721.sol\";\r\nimport \"@openzeppelin/contracts/token/ERC721/extensions/ERC721Enumerable.sol\";\r\n\r\ncontract NFTCollection is ERC721, ERC721Enumerable {\r\n  string[] public tokenURIs;\r\n  mapping(string => bool) _tokenURIExists;\r\n  mapping(uint => string) _tokenIdToTokenURI;\r\n\r\n  constructor() \r\n    ERC721(\"mTC Collection\", \"mTC\") \r\n  {\r\n  }\r\n\r\n  function _beforeTokenTransfer(address from, address to, uint256 tokenId) internal override(ERC721, ERC721Enumerable) {\r\n    super._beforeTokenTransfer(from, to, tokenId);\r\n  }\r\n\r\n  function supportsInterface(bytes4 interfaceId) public view override(ERC721, ERC721Enumerable) returns (bool) {\r\n    return super.supportsInterface(interfaceId);\r\n  }\r\n\r\n  function tokenURI(uint256 tokenId) public override view returns (string memory) {\r\n    require(_exists(tokenId), 'ERC721Metadata: URI query for nonexistent token');\r\n    return _tokenIdToTokenURI[tokenId];\r\n  }\r\n\r\n  function safeMint(string memory _tokenURI) public {\r\n    require(!_tokenURIExists[_tokenURI], 'The token URI should be unique');\r\n    tokenURIs.push(_tokenURI);    \r\n    uint _id = tokenURIs.length;\r\n    _tokenIdToTokenURI[_id] = _tokenURI;\r\n    _safeMint(msg.sender, _id);\r\n    _tokenURIExists[_tokenURI] = true;\r\n  }\r\n}",
  "sourcePath": "/home/nick/server-setup/simple-nft-marketplace-2/src/contracts/NFTCollection.sol",
  "compiler": {
    "name": "solc",
    "version": "0.8.17+commit.8df45f5f.Emscripten.clang"
  },
  "schemaVersion": "3.4.10",
  "updatedAt": "2022-10-25T20:32:47.696Z",
  "networkType": "ethereum",
  "devdoc": {
    "kind": "dev",
    "methods": {
      "approve(address,uint256)": {
        "details": "See {IERC721-approve}."
      },
      "balanceOf(address)": {
        "details": "See {IERC721-balanceOf}."
      },
      "getApproved(uint256)": {
        "details": "See {IERC721-getApproved}."
      },
      "isApprovedForAll(address,address)": {
        "details": "See {IERC721-isApprovedForAll}."
      },
      "name()": {
        "details": "See {IERC721Metadata-name}."
      },
      "ownerOf(uint256)": {
        "details": "See {IERC721-ownerOf}."
      },
      "safeTransferFrom(address,address,uint256)": {
        "details": "See {IERC721-safeTransferFrom}."
      },
      "safeTransferFrom(address,address,uint256,bytes)": {
        "details": "See {IERC721-safeTransferFrom}."
      },
      "setApprovalForAll(address,bool)": {
        "details": "See {IERC721-setApprovalForAll}."
      },
      "symbol()": {
        "details": "See {IERC721Metadata-symbol}."
      },
      "tokenByIndex(uint256)": {
        "details": "See {IERC721Enumerable-tokenByIndex}."
      },
      "tokenOfOwnerByIndex(address,uint256)": {
        "details": "See {IERC721Enumerable-tokenOfOwnerByIndex}."
      },
      "tokenURI(uint256)": {
        "details": "See {IERC721Metadata-tokenURI}."
      },
      "totalSupply()": {
        "details": "See {IERC721Enumerable-totalSupply}."
      },
      "transferFrom(address,address,uint256)": {
        "details": "See {IERC721-transferFrom}."
      }
    },
    "version": 1
  },
  "userdoc": {
    "kind": "user",
    "methods": {},
    "version": 1
  }
}